{
  "contractName": "DataToken",
  "abi": [
    {
      "constant": true,
      "inputs": [],
      "name": "name",
      "outputs": [
        {
          "name": "",
          "type": "string"
        }
      ],
      "payable": false,
      "stateMutability": "view",
      "type": "function"
    },
    {
      "constant": true,
      "inputs": [],
      "name": "decimals",
      "outputs": [
        {
          "name": "",
          "type": "uint8"
        }
      ],
      "payable": false,
      "stateMutability": "view",
      "type": "function"
    },
    {
      "constant": true,
      "inputs": [
        {
          "name": "",
          "type": "address"
        }
      ],
      "name": "balanceOf",
      "outputs": [
        {
          "name": "",
          "type": "uint256"
        }
      ],
      "payable": false,
      "stateMutability": "view",
      "type": "function"
    },
    {
      "constant": true,
      "inputs": [],
      "name": "symbol",
      "outputs": [
        {
          "name": "",
          "type": "string"
        }
      ],
      "payable": false,
      "stateMutability": "view",
      "type": "function"
    },
    {
      "inputs": [
        {
          "name": "initialSupply",
          "type": "uint256"
        }
      ],
      "payable": false,
      "stateMutability": "nonpayable",
      "type": "constructor"
    },
    {
      "anonymous": false,
      "inputs": [
        {
          "indexed": true,
          "name": "_from",
          "type": "address"
        },
        {
          "indexed": true,
          "name": "_to",
          "type": "address"
        },
        {
          "indexed": false,
          "name": "_amount",
          "type": "uint256"
        }
      ],
      "name": "Transfer",
      "type": "event"
    },
    {
      "constant": false,
      "inputs": [
        {
          "name": "_to",
          "type": "address"
        },
        {
          "name": "_amount",
          "type": "uint256"
        }
      ],
      "name": "transfer",
      "outputs": [],
      "payable": false,
      "stateMutability": "nonpayable",
      "type": "function"
    }
  ],
  "bytecode": "0x608060405260126000806101000a81548160ff021916908360ff16021790555034801561002b57600080fd5b506040516020806105d68339810180604052810190808051906020019092919050505080600160003373ffffffffffffffffffffffffffffffffffffffff1673ffffffffffffffffffffffffffffffffffffffff1681526020019081526020016000208190555050610534806100a26000396000f30060806040526004361061006d576000357c0100000000000000000000000000000000000000000000000000000000900463ffffffff16806306fdde0314610072578063313ce5671461010257806370a082311461013357806395d89b411461018a578063a9059cbb1461021a575b600080fd5b34801561007e57600080fd5b50610087610267565b6040518080602001828103825283818151815260200191508051906020019080838360005b838110156100c75780820151818401526020810190506100ac565b50505050905090810190601f1680156100f45780820380516001836020036101000a031916815260200191505b509250505060405180910390f35b34801561010e57600080fd5b506101176102c7565b604051808260ff1660ff16815260200191505060405180910390f35b34801561013f57600080fd5b50610174600480360381019080803573ffffffffffffffffffffffffffffffffffffffff1690602001909291905050506102d9565b6040518082815260200191505060405180910390f35b34801561019657600080fd5b5061019f6102f1565b6040518080602001828103825283818151815260200191508051906020019080838360005b838110156101df5780820151818401526020810190506101c4565b50505050905090810190601f16801561020c5780820380516001836020036101000a031916815260200191505b509250505060405180910390f35b34801561022657600080fd5b50610265600480360381019080803573ffffffffffffffffffffffffffffffffffffffff1690602001909291908035906020019092919050505061032a565b005b606060405190810160405280602b81526020017f446563656e7472616c697a6564204172746966696369616c20496e74656c6c6981526020017f67656e636520546f6b656e00000000000000000000000000000000000000000081525081565b6000809054906101000a900460ff1681565b60016020528060005260406000206000915090505481565b6040805190810160405280600481526020017f444154730000000000000000000000000000000000000000000000000000000081525081565b80600160003373ffffffffffffffffffffffffffffffffffffffff1673ffffffffffffffffffffffffffffffffffffffff168152602001908152602001600020541015151561037857600080fd5b600160008373ffffffffffffffffffffffffffffffffffffffff1673ffffffffffffffffffffffffffffffffffffffff1681526020019081526020016000205481600160008573ffffffffffffffffffffffffffffffffffffffff1673ffffffffffffffffffffffffffffffffffffffff1681526020019081526020016000205401101561040557600080fd5b80600160003373ffffffffffffffffffffffffffffffffffffffff1673ffffffffffffffffffffffffffffffffffffffff1681526020019081526020016000206000828254039250508190555080600160008473ffffffffffffffffffffffffffffffffffffffff1673ffffffffffffffffffffffffffffffffffffffff168152602001908152602001600020600082825401925050819055508173ffffffffffffffffffffffffffffffffffffffff163373ffffffffffffffffffffffffffffffffffffffff167fddf252ad1be2c89b69c2b068fc378daa952ba7f163c4a11628f55a4df523b3ef836040518082815260200191505060405180910390a350505600a165627a7a723058208d8e433c0cf6becf20a7efb0900e5d61f9da8fc172c708682e7c0204a9c580350029",
  "source": "pragma solidity ^0.4.23;\n\ncontract DataToken {\n    \n    string public constant name = \"Decentralized Artificial Intelligence Token\";\n    string public constant symbol = \"DATs\";\n    uint8 public decimals = 18;\n    // string public name = \"Wallet Compatible Token\";\n    // string public symbol = \"WCTs\";\n    // uint8 public decimals = 18;\n    \n    mapping (address => uint256) public balanceOf;\n    \n    event Transfer(address indexed _from, address indexed _to, uint256 _amount);\n    \n    constructor(uint256 initialSupply) public {\n        balanceOf[msg.sender] = initialSupply;\n    }\n    /*\n    function WalletCompatibleToken(string tokenName, string tokenSymbol, uint8 decimalUnits, uint256 initialSupply) public {\n        name = tokenName;\n        symbol = tokenSymbol;\n        decimals = decimalUnits;\n        balanceOf[msg.sender] = initialSupply;\n    }\n    */\n    \n    function transfer(address _to, uint256 _amount) public {\n        require(balanceOf[msg.sender] >= _amount);\n        if (balanceOf[_to] + _amount < balanceOf[_to]) revert();\n        \n        balanceOf[msg.sender] -= _amount;\n        balanceOf[_to] += _amount;\n        emit Transfer(msg.sender, _to, _amount);\n    }\n}",
  "sourcePath": "/Users/rapsealk/Desktop/git/dapp/greeting/contracts/DataToken.sol",
  "compiler": {
    "name": "solc",
    "version": "0.4.24+commit.e67f0147.Emscripten.clang"
  },
  "schemaVersion": "2.0.0",
  "updatedAt": "2018-06-12T15:47:54.035Z"
}