{
  "contractName": "Source",
  "abi": [
    {
      "constant": true,
      "inputs": [
        {
          "name": "",
          "type": "bytes32"
        }
      ],
      "name": "ownerOf",
      "outputs": [
        {
          "name": "",
          "type": "address"
        }
      ],
      "payable": false,
      "stateMutability": "view",
      "type": "function"
    },
    {
      "constant": true,
      "inputs": [
        {
          "name": "",
          "type": "address"
        },
        {
          "name": "",
          "type": "uint256"
        }
      ],
      "name": "offeredBy",
      "outputs": [
        {
          "name": "",
          "type": "bytes32"
        }
      ],
      "payable": false,
      "stateMutability": "view",
      "type": "function"
    },
    {
      "inputs": [],
      "payable": false,
      "stateMutability": "nonpayable",
      "type": "constructor"
    },
    {
      "constant": false,
      "inputs": [
        {
          "name": "_hashId",
          "type": "bytes32"
        }
      ],
      "name": "offer",
      "outputs": [
        {
          "name": "",
          "type": "bytes32"
        }
      ],
      "payable": false,
      "stateMutability": "nonpayable",
      "type": "function"
    }
  ],
  "bytecode": "0x608060405234801561001057600080fd5b506103b1806100206000396000f300608060405260043610610057576000357c0100000000000000000000000000000000000000000000000000000000900463ffffffff1680637dd564111461005c578063b3723bb3146100cd578063dec4b4b814610136575b600080fd5b34801561006857600080fd5b5061008b6004803603810190808035600019169060200190929190505050610183565b604051808273ffffffffffffffffffffffffffffffffffffffff1673ffffffffffffffffffffffffffffffffffffffff16815260200191505060405180910390f35b3480156100d957600080fd5b50610118600480360381019080803573ffffffffffffffffffffffffffffffffffffffff169060200190929190803590602001909291905050506101b6565b60405180826000191660001916815260200191505060405180910390f35b34801561014257600080fd5b5061016560048036038101908080356000191690602001909291905050506101e6565b60405180826000191660001916815260200191505060405180910390f35b60006020528060005260406000206000915054906101000a900473ffffffffffffffffffffffffffffffffffffffff1681565b6001602052816000526040600020818154811015156101d157fe5b90600052602060002001600091509150505481565b60008033600080856000191660001916815260200190815260200160002060006101000a81548173ffffffffffffffffffffffffffffffffffffffff021916908373ffffffffffffffffffffffffffffffffffffffff160217905550600160003373ffffffffffffffffffffffffffffffffffffffff1673ffffffffffffffffffffffffffffffffffffffff16815260200190815260200160002090508281828054905081548110151561029657fe5b9060005260206000200181600019169055508233436040516020018084600019166000191681526020018373ffffffffffffffffffffffffffffffffffffffff1673ffffffffffffffffffffffffffffffffffffffff166c0100000000000000000000000002815260140182815260200193505050506040516020818303038152906040526040518082805190602001908083835b602083101515610350578051825260208201915060208101905060208303925061032b565b6001836020036101000a03801982511681845116808217855250505050505090500191505060405180910390209150509190505600a165627a7a72305820277fcd57654f7db12a647a7c349e2cc112c4b5b01ae8131c812f72d52f8699570029",
  "source": "pragma solidity ^0.4.23;\n\ncontract Source {\n    \n    mapping (bytes32 => address) public ownerOf;\n    mapping (address => bytes32[]) public offeredBy;\n\n    constructor() public {\n        \n    }\n\n    // function offer(hash _dataId) public returns ()\n    function offer(bytes32 _hashId) public returns (bytes32) {\n        ownerOf[_hashId] = msg.sender;\n        bytes32[] storage database = offeredBy[msg.sender];\n        database[database.length] = _hashId;\n\n        return keccak256(abi.encodePacked(_hashId, msg.sender, block.number));\n    }\n\n    /* Gas requirement of this function is high: infinite.\n    function loadData() public view returns (bytes32[]) {\n        return offeredBy[msg.sender];\n    }\n    */\n}",
  "sourcePath": "/Users/rapsealk/Desktop/git/dapp/truffle/contracts/Source.sol",
  "compiler": {
    "name": "solc",
    "version": "0.4.24+commit.e67f0147.Emscripten.clang"
  },
  "schemaVersion": "2.0.0",
  "updatedAt": "2018-06-30T13:25:16.546Z"
}