{
  "contractName": "TokenTrade",
  "abi": [
    {
      "constant": true,
      "inputs": [],
      "name": "tokenReward",
      "outputs": [
        {
          "name": "",
          "type": "address"
        }
      ],
      "payable": false,
      "stateMutability": "view",
      "type": "function"
    },
    {
      "constant": true,
      "inputs": [
        {
          "name": "",
          "type": "address"
        },
        {
          "name": "",
          "type": "uint256"
        }
      ],
      "name": "history",
      "outputs": [
        {
          "name": "",
          "type": "bytes32"
        }
      ],
      "payable": false,
      "stateMutability": "view",
      "type": "function"
    },
    {
      "constant": true,
      "inputs": [],
      "name": "owner",
      "outputs": [
        {
          "name": "",
          "type": "address"
        }
      ],
      "payable": false,
      "stateMutability": "view",
      "type": "function"
    },
    {
      "inputs": [
        {
          "name": "tokenAddress",
          "type": "address"
        }
      ],
      "payable": false,
      "stateMutability": "nonpayable",
      "type": "constructor"
    },
    {
      "constant": false,
      "inputs": [
        {
          "name": "_data",
          "type": "bytes32"
        }
      ],
      "name": "provideData",
      "outputs": [],
      "payable": false,
      "stateMutability": "nonpayable",
      "type": "function"
    },
    {
      "constant": true,
      "inputs": [],
      "name": "getHistory",
      "outputs": [
        {
          "name": "",
          "type": "bytes32"
        }
      ],
      "payable": false,
      "stateMutability": "view",
      "type": "function"
    },
    {
      "constant": true,
      "inputs": [
        {
          "name": "_address",
          "type": "address"
        }
      ],
      "name": "getTokenBalanceByAddress",
      "outputs": [
        {
          "name": "",
          "type": "uint256"
        }
      ],
      "payable": false,
      "stateMutability": "view",
      "type": "function"
    }
  ],
  "bytecode": "0x608060405234801561001057600080fd5b5060405160208061067a83398101806040528101908080519060200190929190505050336000806101000a81548173ffffffffffffffffffffffffffffffffffffffff021916908373ffffffffffffffffffffffffffffffffffffffff16021790555080600160006101000a81548173ffffffffffffffffffffffffffffffffffffffff021916908373ffffffffffffffffffffffffffffffffffffffff160217905550506105b6806100c46000396000f300608060405260043610610078576000357c0100000000000000000000000000000000000000000000000000000000900463ffffffff16806339e4ea631461007d5780636e66f6e9146100d45780637718f4ec1461012b5780638da5cb5b14610194578063aa15efc8146101eb578063d0ff4bd11461021e575b600080fd5b34801561008957600080fd5b506100be600480360381019080803573ffffffffffffffffffffffffffffffffffffffff16906020019092919050505061024f565b6040518082815260200191505060405180910390f35b3480156100e057600080fd5b506100e9610355565b604051808273ffffffffffffffffffffffffffffffffffffffff1673ffffffffffffffffffffffffffffffffffffffff16815260200191505060405180910390f35b34801561013757600080fd5b50610176600480360381019080803573ffffffffffffffffffffffffffffffffffffffff1690602001909291908035906020019092919050505061037b565b60405180826000191660001916815260200191505060405180910390f35b3480156101a057600080fd5b506101a96103ab565b604051808273ffffffffffffffffffffffffffffffffffffffff1673ffffffffffffffffffffffffffffffffffffffff16815260200191505060405180910390f35b3480156101f757600080fd5b506102006103d0565b60405180826000191660001916815260200191505060405180910390f35b34801561022a57600080fd5b5061024d600480360381019080803560001916906020019092919050505061043a565b005b600080600160009054906101000a900473ffffffffffffffffffffffffffffffffffffffff1673ffffffffffffffffffffffffffffffffffffffff1663136d6a39846040518263ffffffff167c0100000000000000000000000000000000000000000000000000000000028152600401808273ffffffffffffffffffffffffffffffffffffffff1673ffffffffffffffffffffffffffffffffffffffff168152602001915050602060405180830381600087803b15801561030f57600080fd5b505af1158015610323573d6000803e3d6000fd5b505050506040513d602081101561033957600080fd5b8101908080519060200190929190505050905080915050919050565b600160009054906101000a900473ffffffffffffffffffffffffffffffffffffffff1681565b60026020528160005260406000208181548110151561039657fe5b90600052602060002001600091509150505481565b6000809054906101000a900473ffffffffffffffffffffffffffffffffffffffff1681565b600080600260003373ffffffffffffffffffffffffffffffffffffffff1673ffffffffffffffffffffffffffffffffffffffff168152602001908152602001600020905080600182805490500381548110151561042957fe5b906000526020600020015491505090565b600260003373ffffffffffffffffffffffffffffffffffffffff1673ffffffffffffffffffffffffffffffffffffffff168152602001908152602001600020819080600181540180825580915050906001820390600052602060002001600090919290919091509060001916905550600160009054906101000a900473ffffffffffffffffffffffffffffffffffffffff1673ffffffffffffffffffffffffffffffffffffffff1663a9059cbb3360016040518363ffffffff167c0100000000000000000000000000000000000000000000000000000000028152600401808373ffffffffffffffffffffffffffffffffffffffff1673ffffffffffffffffffffffffffffffffffffffff16815260200182815260200192505050600060405180830381600087803b15801561056f57600080fd5b505af1158015610583573d6000803e3d6000fd5b50505050505600a165627a7a7230582060bc228b27f9fe93f71feeab43117491a4f8050f445da85000fdda6818c42bad0029",
  "source": "pragma solidity ^0.4.18;\r\n\r\ncontract TokenTrade {\r\n\r\n    address public owner;\r\n    TradeToken public tokenReward;\r\n    // mapping (address => uint256) balanceOf;\r\n    mapping (address => bytes32[]) public history;\r\n\r\n    modifier onlyOwner() {\r\n        require(msg.sender == owner);\r\n        _;\r\n    }\r\n\r\n    //*/\r\n    constructor\r\n    /*/\r\n    function Trade\r\n    //*/\r\n    (address tokenAddress) public {\r\n        owner = msg.sender;\r\n        tokenReward = TradeToken(tokenAddress);\r\n    }\r\n\r\n    function provideData(bytes32 _data) public {\r\n        history[msg.sender].push(_data);\r\n        tokenReward.transfer(msg.sender, 1);\r\n    }\r\n\r\n    function getHistory() public view returns (bytes32) {\r\n        bytes32[] storage myHistory = history[msg.sender];\r\n        return myHistory[myHistory.length-1];\r\n    }\r\n\r\n    function getTokenBalanceByAddress(address _address) public view returns (uint256) {\r\n        uint256 balance = tokenReward.getBalanceByAddress(_address);\r\n        return balance;\r\n    }\r\n}\r\n\r\ncontract TradeToken {\r\n\r\n    string public name = \"Decentralized Artificial Intelligence Token\";\r\n    string public symbol = \"DATs\";\r\n    uint8 public decimals = 18;\r\n\r\n    mapping (address => uint256) public balanceOf;\r\n\r\n    event Transfer(address _from, address _to, uint256 _value);\r\n\r\n    //*/\r\n    constructor\r\n    /*/\r\n    function Token\r\n    //*/\r\n    (uint256 initialSupply) public {\r\n        balanceOf[msg.sender] = initialSupply;\r\n    }\r\n\r\n    function transfer(address _to, uint256 _amount) public {\r\n        if (balanceOf[msg.sender] < _amount) revert();\r\n        if (balanceOf[_to] + _amount < balanceOf[_to]) revert();\r\n\r\n        balanceOf[msg.sender] -= _amount;\r\n        balanceOf[_to] += _amount;\r\n\r\n        emit Transfer(msg.sender, _to, _amount);\r\n    }\r\n\r\n    function getBalanceByAddress(address _address) public view returns (uint256) {\r\n        return balanceOf[_address];\r\n    }\r\n}",
  "sourcePath": "C:\\Users\\sonagi623\\Desktop\\git\\dapp\\truffle\\contracts\\TokenTrade.sol",
  "compiler": {
    "name": "solc",
    "version": "0.4.24+commit.e67f0147.Emscripten.clang"
  },
  "schemaVersion": "2.0.0",
  "updatedAt": "2018-07-14T08:20:38.659Z"
}