{
  "contractName": "TokenTrade",
  "abi": [
    {
      "constant": true,
      "inputs": [],
      "name": "tokenReward",
      "outputs": [
        {
          "name": "",
          "type": "address"
        }
      ],
      "payable": false,
      "stateMutability": "view",
      "type": "function"
    },
    {
      "constant": true,
      "inputs": [
        {
          "name": "",
          "type": "address"
        },
        {
          "name": "",
          "type": "uint256"
        }
      ],
      "name": "history",
      "outputs": [
        {
          "name": "",
          "type": "bytes32"
        }
      ],
      "payable": false,
      "stateMutability": "view",
      "type": "function"
    },
    {
      "constant": true,
      "inputs": [],
      "name": "owner",
      "outputs": [
        {
          "name": "",
          "type": "address"
        }
      ],
      "payable": false,
      "stateMutability": "view",
      "type": "function"
    },
    {
      "inputs": [
        {
          "name": "tokenAddress",
          "type": "address"
        }
      ],
      "payable": false,
      "stateMutability": "nonpayable",
      "type": "constructor"
    },
    {
      "constant": false,
      "inputs": [
        {
          "name": "_data",
          "type": "bytes32"
        }
      ],
      "name": "provideData",
      "outputs": [],
      "payable": false,
      "stateMutability": "nonpayable",
      "type": "function"
    },
    {
      "constant": true,
      "inputs": [],
      "name": "getHistory",
      "outputs": [
        {
          "name": "",
          "type": "bytes32"
        }
      ],
      "payable": false,
      "stateMutability": "view",
      "type": "function"
    },
    {
      "constant": true,
      "inputs": [
        {
          "name": "_address",
          "type": "address"
        }
      ],
      "name": "getTokenBalanceByAddress",
      "outputs": [
        {
          "name": "",
          "type": "uint256"
        }
      ],
      "payable": false,
      "stateMutability": "view",
      "type": "function"
    }
  ],
  "bytecode": "0x608060405234801561001057600080fd5b5060405160208061067a83398101806040528101908080519060200190929190505050336000806101000a81548173ffffffffffffffffffffffffffffffffffffffff021916908373ffffffffffffffffffffffffffffffffffffffff16021790555080600160006101000a81548173ffffffffffffffffffffffffffffffffffffffff021916908373ffffffffffffffffffffffffffffffffffffffff160217905550506105b6806100c46000396000f300608060405260043610610078576000357c0100000000000000000000000000000000000000000000000000000000900463ffffffff16806339e4ea631461007d5780636e66f6e9146100d45780637718f4ec1461012b5780638da5cb5b14610194578063aa15efc8146101eb578063d0ff4bd11461021e575b600080fd5b34801561008957600080fd5b506100be600480360381019080803573ffffffffffffffffffffffffffffffffffffffff16906020019092919050505061024f565b6040518082815260200191505060405180910390f35b3480156100e057600080fd5b506100e9610355565b604051808273ffffffffffffffffffffffffffffffffffffffff1673ffffffffffffffffffffffffffffffffffffffff16815260200191505060405180910390f35b34801561013757600080fd5b50610176600480360381019080803573ffffffffffffffffffffffffffffffffffffffff1690602001909291908035906020019092919050505061037b565b60405180826000191660001916815260200191505060405180910390f35b3480156101a057600080fd5b506101a96103ab565b604051808273ffffffffffffffffffffffffffffffffffffffff1673ffffffffffffffffffffffffffffffffffffffff16815260200191505060405180910390f35b3480156101f757600080fd5b506102006103d0565b60405180826000191660001916815260200191505060405180910390f35b34801561022a57600080fd5b5061024d600480360381019080803560001916906020019092919050505061043a565b005b600080600160009054906101000a900473ffffffffffffffffffffffffffffffffffffffff1673ffffffffffffffffffffffffffffffffffffffff1663136d6a39846040518263ffffffff167c0100000000000000000000000000000000000000000000000000000000028152600401808273ffffffffffffffffffffffffffffffffffffffff1673ffffffffffffffffffffffffffffffffffffffff168152602001915050602060405180830381600087803b15801561030f57600080fd5b505af1158015610323573d6000803e3d6000fd5b505050506040513d602081101561033957600080fd5b8101908080519060200190929190505050905080915050919050565b600160009054906101000a900473ffffffffffffffffffffffffffffffffffffffff1681565b60026020528160005260406000208181548110151561039657fe5b90600052602060002001600091509150505481565b6000809054906101000a900473ffffffffffffffffffffffffffffffffffffffff1681565b600080600260003373ffffffffffffffffffffffffffffffffffffffff1673ffffffffffffffffffffffffffffffffffffffff168152602001908152602001600020905080600182805490500381548110151561042957fe5b906000526020600020015491505090565b600260003373ffffffffffffffffffffffffffffffffffffffff1673ffffffffffffffffffffffffffffffffffffffff168152602001908152602001600020819080600181540180825580915050906001820390600052602060002001600090919290919091509060001916905550600160009054906101000a900473ffffffffffffffffffffffffffffffffffffffff1673ffffffffffffffffffffffffffffffffffffffff1663a9059cbb3360016040518363ffffffff167c0100000000000000000000000000000000000000000000000000000000028152600401808373ffffffffffffffffffffffffffffffffffffffff1673ffffffffffffffffffffffffffffffffffffffff16815260200182815260200192505050600060405180830381600087803b15801561056f57600080fd5b505af1158015610583573d6000803e3d6000fd5b50505050505600a165627a7a72305820b4a6f8780e07c266755024e9fa3ab00a8aedb12ffd9bc226274cfc18545c2d0a0029",
  "source": "pragma solidity ^0.4.18;\n\ncontract TokenTrade {\n\n    address public owner;\n    TradeToken public tokenReward;\n    // mapping (address => uint256) balanceOf;\n    mapping (address => bytes32[]) public history;\n\n    modifier onlyOwner() {\n        require(msg.sender == owner);\n        _;\n    }\n\n    //*/\n    constructor\n    /*/\n    function Trade\n    //*/\n    (address tokenAddress) public {\n        owner = msg.sender;\n        tokenReward = TradeToken(tokenAddress);\n    }\n\n    function provideData(bytes32 _data) public {\n        history[msg.sender].push(_data);\n        tokenReward.transfer(msg.sender, 1);\n    }\n\n    function getHistory() public view returns (bytes32) {\n        bytes32[] storage myHistory = history[msg.sender];\n        return myHistory[myHistory.length-1];\n    }\n\n    function getTokenBalanceByAddress(address _address) public view returns (uint256) {\n        uint256 balance = tokenReward.getBalanceByAddress(_address);\n        return balance;\n    }\n}\n\ncontract TradeToken {\n\n    string public name = \"Decentralized Artificial Intelligence Token\";\n    string public symbol = \"DATs\";\n    uint8 public decimals = 18;\n\n    mapping (address => uint256) public balanceOf;\n\n    event Transfer(address _from, address _to, uint256 _value);\n\n    //*/\n    constructor\n    /*/\n    function Token\n    //*/\n    (uint256 initialSupply) public {\n        balanceOf[msg.sender] = initialSupply;\n    }\n\n    function transfer(address _to, uint256 _amount) public {\n        if (balanceOf[msg.sender] < _amount) revert();\n        if (balanceOf[_to] + _amount < balanceOf[_to]) revert();\n\n        balanceOf[msg.sender] -= _amount;\n        balanceOf[_to] += _amount;\n\n        emit Transfer(msg.sender, _to, _amount);\n    }\n\n    function getBalanceByAddress(address _address) public view returns (uint256) {\n        return balanceOf[_address];\n    }\n}",
  "sourcePath": "/Users/rapsealk/Desktop/git/dapp/truffle/contracts/TokenTrade.sol",
  "compiler": {
    "name": "solc",
    "version": "0.4.24+commit.e67f0147.Emscripten.clang"
  },
  "schemaVersion": "2.0.0",
  "updatedAt": "2018-06-30T17:06:17.157Z"
}