{
  "contractName": "Trade",
  "abi": [
    {
      "constant": true,
      "inputs": [],
      "name": "tokenReward",
      "outputs": [
        {
          "name": "",
          "type": "address"
        }
      ],
      "payable": false,
      "stateMutability": "view",
      "type": "function"
    },
    {
      "constant": true,
      "inputs": [
        {
          "name": "",
          "type": "address"
        }
      ],
      "name": "history",
      "outputs": [
        {
          "name": "",
          "type": "bytes32"
        }
      ],
      "payable": false,
      "stateMutability": "view",
      "type": "function"
    },
    {
      "inputs": [
        {
          "name": "tokenAddress",
          "type": "address"
        }
      ],
      "payable": false,
      "stateMutability": "nonpayable",
      "type": "constructor"
    },
    {
      "constant": false,
      "inputs": [
        {
          "name": "_data",
          "type": "bytes32"
        }
      ],
      "name": "provideData",
      "outputs": [],
      "payable": true,
      "stateMutability": "payable",
      "type": "function"
    },
    {
      "constant": true,
      "inputs": [],
      "name": "getData",
      "outputs": [
        {
          "name": "",
          "type": "bytes32"
        }
      ],
      "payable": false,
      "stateMutability": "view",
      "type": "function"
    },
    {
      "constant": true,
      "inputs": [
        {
          "name": "_address",
          "type": "address"
        }
      ],
      "name": "getTokenBalanceByAddress",
      "outputs": [
        {
          "name": "",
          "type": "uint256"
        }
      ],
      "payable": false,
      "stateMutability": "view",
      "type": "function"
    }
  ],
  "bytecode": "0x608060405234801561001057600080fd5b5060405160208061053683398101806040528101908080519060200190929190505050806000806101000a81548173ffffffffffffffffffffffffffffffffffffffff021916908373ffffffffffffffffffffffffffffffffffffffff160217905550506104b3806100836000396000f30060806040526004361061006d576000357c0100000000000000000000000000000000000000000000000000000000900463ffffffff16806339e4ea63146100725780633bc5de30146100c95780636e66f6e9146100fc578063931c7c6814610153578063d0ff4bd1146101b2575b600080fd5b34801561007e57600080fd5b506100b3600480360381019080803573ffffffffffffffffffffffffffffffffffffffff1690602001909291905050506101d6565b6040518082815260200191505060405180910390f35b3480156100d557600080fd5b506100de6102db565b60405180826000191660001916815260200191505060405180910390f35b34801561010857600080fd5b50610111610322565b604051808273ffffffffffffffffffffffffffffffffffffffff1673ffffffffffffffffffffffffffffffffffffffff16815260200191505060405180910390f35b34801561015f57600080fd5b50610194600480360381019080803573ffffffffffffffffffffffffffffffffffffffff169060200190929190505050610347565b60405180826000191660001916815260200191505060405180910390f35b6101d4600480360381019080803560001916906020019092919050505061035f565b005b6000806000809054906101000a900473ffffffffffffffffffffffffffffffffffffffff1673ffffffffffffffffffffffffffffffffffffffff1663136d6a39846040518263ffffffff167c0100000000000000000000000000000000000000000000000000000000028152600401808273ffffffffffffffffffffffffffffffffffffffff1673ffffffffffffffffffffffffffffffffffffffff168152602001915050602060405180830381600087803b15801561029557600080fd5b505af11580156102a9573d6000803e3d6000fd5b505050506040513d60208110156102bf57600080fd5b8101908080519060200190929190505050905080915050919050565b6000600160003373ffffffffffffffffffffffffffffffffffffffff1673ffffffffffffffffffffffffffffffffffffffff16815260200190815260200160002054905090565b6000809054906101000a900473ffffffffffffffffffffffffffffffffffffffff1681565b60016020528060005260406000206000915090505481565b80600160003373ffffffffffffffffffffffffffffffffffffffff1673ffffffffffffffffffffffffffffffffffffffff16815260200190815260200160002081600019169055506000809054906101000a900473ffffffffffffffffffffffffffffffffffffffff1673ffffffffffffffffffffffffffffffffffffffff1663a9059cbb3360016040518363ffffffff167c0100000000000000000000000000000000000000000000000000000000028152600401808373ffffffffffffffffffffffffffffffffffffffff1673ffffffffffffffffffffffffffffffffffffffff16815260200182815260200192505050600060405180830381600087803b15801561046c57600080fd5b505af1158015610480573d6000803e3d6000fd5b50505050505600a165627a7a723058207d50e1fb31860f84ae3adc4a6b56a010c7e0b837c4a5679002e8483d555408080029",
  "source": "pragma solidity ^0.4.18;\r\n\r\nimport \"./Token.sol\";\r\n\r\ncontract Trade {\r\n\r\n    // address public owner;\r\n    Token public tokenReward;\r\n    // mapping (address => uint256) balanceOf;\r\n    mapping (address => bytes32) public history;\r\n    // mapping (address => bytes32[]) public history;\r\n\r\n/*\r\n    modifier onlyOwner() {\r\n        require(msg.sender == owner);\r\n        _;\r\n    }\r\n*/\r\n    //*/\r\n    constructor\r\n    /*/\r\n    function Trade\r\n    //*/\r\n    (address tokenAddress) public {\r\n        // owner = msg.sender;\r\n        tokenReward = Token(tokenAddress);\r\n    }\r\n\r\n    function provideData(bytes32 _data) public payable {\r\n        history[msg.sender] = _data;\r\n        // history[msg.sender].push(_data);\r\n        tokenReward.transfer(msg.sender, 1);\r\n    }\r\n\r\n    function getData() public view returns (bytes32) {\r\n        return history[msg.sender];\r\n    }\r\n/*\r\n    function getHistory() public view returns (bytes32) {\r\n        bytes32[] storage myHistory = history[msg.sender];\r\n        return myHistory[myHistory.length-1];\r\n    }\r\n*/\r\n    function getTokenBalanceByAddress(address _address) public view returns (uint256) {\r\n        uint256 balance = tokenReward.getBalanceByAddress(_address);\r\n        return balance;\r\n    }\r\n}",
  "sourcePath": "C:\\Users\\sonagi623\\Desktop\\git\\dapp\\truffle\\contracts\\Trade.sol",
  "compiler": {
    "name": "solc",
    "version": "0.4.24+commit.e67f0147.Emscripten.clang"
  },
  "schemaVersion": "2.0.0",
  "updatedAt": "2018-07-14T08:20:38.656Z"
}