{
  "contractName": "TradeV01",
  "abi": [
    {
      "constant": true,
      "inputs": [],
      "name": "tokenReward",
      "outputs": [
        {
          "name": "",
          "type": "address"
        }
      ],
      "payable": false,
      "stateMutability": "view",
      "type": "function"
    },
    {
      "constant": true,
      "inputs": [
        {
          "name": "",
          "type": "address"
        }
      ],
      "name": "balanceOf",
      "outputs": [
        {
          "name": "",
          "type": "uint256"
        }
      ],
      "payable": false,
      "stateMutability": "view",
      "type": "function"
    },
    {
      "constant": true,
      "inputs": [],
      "name": "price",
      "outputs": [
        {
          "name": "",
          "type": "uint256"
        }
      ],
      "payable": false,
      "stateMutability": "view",
      "type": "function"
    },
    {
      "inputs": [
        {
          "name": "tokenAddress",
          "type": "address"
        }
      ],
      "payable": false,
      "stateMutability": "nonpayable",
      "type": "constructor"
    },
    {
      "payable": true,
      "stateMutability": "payable",
      "type": "fallback"
    },
    {
      "anonymous": false,
      "inputs": [
        {
          "indexed": false,
          "name": "receiver",
          "type": "address"
        },
        {
          "indexed": false,
          "name": "amount",
          "type": "uint256"
        }
      ],
      "name": "Trade",
      "type": "event"
    }
  ],
  "bytecode": "0x60806040526001805534801561001457600080fd5b506040516020806102e683398101806040528101908080519060200190929190505050806000806101000a81548173ffffffffffffffffffffffffffffffffffffffff021916908373ffffffffffffffffffffffffffffffffffffffff1602179055505061025f806100876000396000f300608060405260043610610057576000357c0100000000000000000000000000000000000000000000000000000000900463ffffffff1680636e66f6e91461011757806370a082311461016e578063a035b1fe146101c5575b600034905080600260003373ffffffffffffffffffffffffffffffffffffffff1673ffffffffffffffffffffffffffffffffffffffff168152602001908152602001600020600082825401925050819055507f473143fbc5eac9f496272408e704b4ab0136ed56a4b525e3f3919ffe96ffc9353382604051808373ffffffffffffffffffffffffffffffffffffffff1673ffffffffffffffffffffffffffffffffffffffff1681526020018281526020019250505060405180910390a150005b34801561012357600080fd5b5061012c6101f0565b604051808273ffffffffffffffffffffffffffffffffffffffff1673ffffffffffffffffffffffffffffffffffffffff16815260200191505060405180910390f35b34801561017a57600080fd5b506101af600480360381019080803573ffffffffffffffffffffffffffffffffffffffff169060200190929190505050610215565b6040518082815260200191505060405180910390f35b3480156101d157600080fd5b506101da61022d565b6040518082815260200191505060405180910390f35b6000809054906101000a900473ffffffffffffffffffffffffffffffffffffffff1681565b60026020528060005260406000206000915090505481565b600154815600a165627a7a723058204ba380aa416b3634c3c87b241d231f041cbfcc306f60aba903c9ef7db674fad20029",
  "source": "pragma solidity ^0.4.18;\r\n\r\ninterface token {\r\n    function transfer(address receiver, uint256 amount) external;\r\n}\r\n\r\ncontract TradeV01 {\r\n\r\n    // address public owner;\r\n    token public tokenReward;\r\n    uint public price = 1;\r\n    mapping (address => uint256) public balanceOf;\r\n\r\n    // event Transfer(address sender, address receiver, uint256 amount);\r\n    event Trade(address receiver, uint256 amount);\r\n\r\n    //*\r\n    constructor\r\n    /*/\r\n    function TradeV01\r\n    //*/\r\n    (address tokenAddress) public {\r\n        // owner = msg.sender;\r\n        // balanceOf[owner] = initialAmount;\r\n        tokenReward = token(tokenAddress);\r\n    }\r\n\r\n    function () payable public {\r\n        uint256 amount = msg.value;\r\n        // require(amount <= balanceOf[owner]);\r\n        // require(balanceOf[msg.sender] <= balanceOf[msg.sender] + amount);\r\n        // balanceOf[owner] -= amount;\r\n        balanceOf[msg.sender] += amount;\r\n        // emit Transfer(owner, msg.sender, amount);\r\n        emit Trade(msg.sender, amount);\r\n    }\r\n}",
  "sourcePath": "C:\\Users\\sonagi623\\Desktop\\git\\dapp\\truffle\\contracts\\TradeV01.sol",
  "compiler": {
    "name": "solc",
    "version": "0.4.24+commit.e67f0147.Emscripten.clang"
  },
  "schemaVersion": "2.0.0",
  "updatedAt": "2018-06-26T13:35:52.117Z"
}