{
  "contractName": "Trade",
  "abi": [
    {
      "constant": true,
      "inputs": [],
      "name": "tokenReward",
      "outputs": [
        {
          "name": "",
          "type": "address"
        }
      ],
      "payable": false,
      "stateMutability": "view",
      "type": "function"
    },
    {
      "constant": true,
      "inputs": [
        {
          "name": "",
          "type": "address"
        },
        {
          "name": "",
          "type": "uint256"
        }
      ],
      "name": "history",
      "outputs": [
        {
          "name": "",
          "type": "bytes"
        }
      ],
      "payable": false,
      "stateMutability": "view",
      "type": "function"
    },
    {
      "constant": true,
      "inputs": [],
      "name": "owner",
      "outputs": [
        {
          "name": "",
          "type": "address"
        }
      ],
      "payable": false,
      "stateMutability": "view",
      "type": "function"
    },
    {
      "inputs": [
        {
          "name": "tokenAddress",
          "type": "address"
        }
      ],
      "payable": false,
      "stateMutability": "nonpayable",
      "type": "constructor"
    },
    {
      "constant": false,
      "inputs": [],
      "name": "provideData",
      "outputs": [],
      "payable": false,
      "stateMutability": "nonpayable",
      "type": "function"
    },
    {
      "constant": true,
      "inputs": [],
      "name": "getHistory",
      "outputs": [
        {
          "name": "",
          "type": "bytes"
        }
      ],
      "payable": false,
      "stateMutability": "view",
      "type": "function"
    },
    {
      "constant": false,
      "inputs": [
        {
          "name": "_address",
          "type": "address"
        }
      ],
      "name": "getTokenBalanceByAddress",
      "outputs": [
        {
          "name": "",
          "type": "uint256"
        }
      ],
      "payable": false,
      "stateMutability": "nonpayable",
      "type": "function"
    }
  ],
  "bytecode": "0x608060405234801561001057600080fd5b5060405160208061090083398101806040528101908080519060200190929190505050336000806101000a81548173ffffffffffffffffffffffffffffffffffffffff021916908373ffffffffffffffffffffffffffffffffffffffff16021790555080600160006101000a81548173ffffffffffffffffffffffffffffffffffffffff021916908373ffffffffffffffffffffffffffffffffffffffff1602179055505061083c806100c46000396000f300608060405260043610610078576000357c0100000000000000000000000000000000000000000000000000000000900463ffffffff1680631045ddf81461007d57806339e4ea63146100945780636e66f6e9146100eb5780637718f4ec146101425780638da5cb5b14610208578063aa15efc81461025f575b600080fd5b34801561008957600080fd5b506100926102ef565b005b3480156100a057600080fd5b506100d5600480360381019080803573ffffffffffffffffffffffffffffffffffffffff16906020019092919050505061044f565b6040518082815260200191505060405180910390f35b3480156100f757600080fd5b50610100610555565b604051808273ffffffffffffffffffffffffffffffffffffffff1673ffffffffffffffffffffffffffffffffffffffff16815260200191505060405180910390f35b34801561014e57600080fd5b5061018d600480360381019080803573ffffffffffffffffffffffffffffffffffffffff1690602001909291908035906020019092919050505061057b565b6040518080602001828103825283818151815260200191508051906020019080838360005b838110156101cd5780820151818401526020810190506101b2565b50505050905090810190601f1680156101fa5780820380516001836020036101000a031916815260200191505b509250505060405180910390f35b34801561021457600080fd5b5061021d610643565b604051808273ffffffffffffffffffffffffffffffffffffffff1673ffffffffffffffffffffffffffffffffffffffff16815260200191505060405180910390f35b34801561026b57600080fd5b50610274610668565b6040518080602001828103825283818151815260200191508051906020019080838360005b838110156102b4578082015181840152602081019050610299565b50505050905090810190601f1680156102e15780820380516001836020036101000a031916815260200191505b509250505060405180910390f35b600260003373ffffffffffffffffffffffffffffffffffffffff1673ffffffffffffffffffffffffffffffffffffffff1681526020019081526020016000206000369091806001815401808255809150509060018203906000526020600020016000909192939091929390919290919250919061036d92919061076b565b5050600160009054906101000a900473ffffffffffffffffffffffffffffffffffffffff1673ffffffffffffffffffffffffffffffffffffffff1663a9059cbb3360016040518363ffffffff167c0100000000000000000000000000000000000000000000000000000000028152600401808373ffffffffffffffffffffffffffffffffffffffff1673ffffffffffffffffffffffffffffffffffffffff16815260200182815260200192505050600060405180830381600087803b15801561043557600080fd5b505af1158015610449573d6000803e3d6000fd5b50505050565b600080600160009054906101000a900473ffffffffffffffffffffffffffffffffffffffff1673ffffffffffffffffffffffffffffffffffffffff1663136d6a39846040518263ffffffff167c0100000000000000000000000000000000000000000000000000000000028152600401808273ffffffffffffffffffffffffffffffffffffffff1673ffffffffffffffffffffffffffffffffffffffff168152602001915050602060405180830381600087803b15801561050f57600080fd5b505af1158015610523573d6000803e3d6000fd5b505050506040513d602081101561053957600080fd5b8101908080519060200190929190505050905080915050919050565b600160009054906101000a900473ffffffffffffffffffffffffffffffffffffffff1681565b60026020528160005260406000208181548110151561059657fe5b90600052602060002001600091509150508054600181600116156101000203166002900480601f01602080910402602001604051908101604052809291908181526020018280546001816001161561010002031660029004801561063b5780601f106106105761010080835404028352916020019161063b565b820191906000526020600020905b81548152906001019060200180831161061e57829003601f168201915b505050505081565b6000809054906101000a900473ffffffffffffffffffffffffffffffffffffffff1681565b60606000600260003373ffffffffffffffffffffffffffffffffffffffff1673ffffffffffffffffffffffffffffffffffffffff16815260200190815260200160002090508060018280549050038154811015156106c257fe5b906000526020600020018054600181600116156101000203166002900480601f0160208091040260200160405190810160405280929190818152602001828054600181600116156101000203166002900480156107605780601f1061073557610100808354040283529160200191610760565b820191906000526020600020905b81548152906001019060200180831161074357829003601f168201915b505050505091505090565b828054600181600116156101000203166002900490600052602060002090601f016020900481019282601f106107ac57803560ff19168380011785556107da565b828001600101855582156107da579182015b828111156107d95782358255916020019190600101906107be565b5b5090506107e791906107eb565b5090565b61080d91905b808211156108095760008160009055506001016107f1565b5090565b905600a165627a7a72305820c16623c396a465b30974d0b48bf8ddea60f582d5a5271a551d9c981f66e795650029",
  "source": "pragma solidity ^0.4.18;\r\n\r\ninterface token {\r\n    function transfer(address to, uint256 amount) external;\r\n    function getBalanceByAddress(address account) external returns (uint256);\r\n}\r\n\r\ncontract Trade {\r\n\r\n    address public owner;\r\n    token public tokenReward;\r\n    // mapping (address => uint256) balanceOf;\r\n    mapping (address => bytes[]) public history;\r\n\r\n    modifier onlyOwner() {\r\n        require(msg.sender == owner);\r\n        _;\r\n    }\r\n\r\n    //*/\r\n    constructor\r\n    /*/\r\n    function Trade\r\n    //*/\r\n    (address tokenAddress) public {\r\n        owner = msg.sender;\r\n\r\n        tokenReward = token(tokenAddress);\r\n    }\r\n\r\n    function provideData() public {\r\n        history[msg.sender].push(msg.data);\r\n        tokenReward.transfer(msg.sender, 1);\r\n    }\r\n\r\n    function getHistory() public view returns (bytes) {\r\n        /*\r\n        bytes[] memory lastHistory = new bytes[](history.length);\r\n        for (uint i = 0; i < history.length; i++) {\r\n            lastHistory[i] = history[i];\r\n        }\r\n        */\r\n        bytes[] storage myHistory = history[msg.sender];\r\n        return myHistory[myHistory.length-1];\r\n        // return history[msg.sender];\r\n        // uint length = history[msg.sender].length;\r\n        // return history[msg.sender][length-1];\r\n        // return history[msg.sender];\r\n    }\r\n\r\n    function getTokenBalanceByAddress(address _address) public returns (uint256) {\r\n        uint256 balance = tokenReward.getBalanceByAddress(_address);\r\n        return balance;\r\n    }\r\n}",
  "sourcePath": "C:\\Users\\rapsealk\\Desktop\\git\\dapp\\truffle\\contracts\\Trade.sol",
  "compiler": {
    "name": "solc",
    "version": "0.4.24+commit.e67f0147.Emscripten.clang"
  },
  "schemaVersion": "2.0.0",
  "updatedAt": "2018-06-29T06:04:52.614Z"
}